{"abi":[{"type":"constructor","inputs":[],"stateMutability":"nonpayable"},{"type":"function","name":"UPGRADE_INTERFACE_VERSION","inputs":[],"outputs":[{"name":"","type":"string","internalType":"string"}],"stateMutability":"view"},{"type":"function","name":"feeToken","inputs":[],"outputs":[{"name":"","type":"address","internalType":"contract ERC20"}],"stateMutability":"view"},{"type":"function","name":"generationDeviationFactor","inputs":[],"outputs":[{"name":"","type":"uint64","internalType":"uint64"}],"stateMutability":"view"},{"type":"function","name":"generationFee","inputs":[],"outputs":[{"name":"","type":"uint256","internalType":"uint256"}],"stateMutability":"view"},{"type":"function","name":"getBestResponse","inputs":[{"name":"taskId","type":"uint256","internalType":"uint256"}],"outputs":[{"name":"","type":"tuple","internalType":"struct LLMOracleTask.TaskResponse","components":[{"name":"responder","type":"address","internalType":"address"},{"name":"nonce","type":"uint256","internalType":"uint256"},{"name":"score","type":"uint256","internalType":"uint256"},{"name":"output","type":"bytes","internalType":"bytes"},{"name":"metadata","type":"bytes","internalType":"bytes"}]}],"stateMutability":"view"},{"type":"function","name":"getFee","inputs":[{"name":"parameters","type":"tuple","internalType":"struct LLMOracleTaskParameters","components":[{"name":"difficulty","type":"uint8","internalType":"uint8"},{"name":"numGenerations","type":"uint40","internalType":"uint40"},{"name":"numValidations","type":"uint40","internalType":"uint40"}]}],"outputs":[{"name":"totalFee","type":"uint256","internalType":"uint256"},{"name":"generatorFee","type":"uint256","internalType":"uint256"},{"name":"validatorFee","type":"uint256","internalType":"uint256"}],"stateMutability":"view"},{"type":"function","name":"getResponses","inputs":[{"name":"taskId","type":"uint256","internalType":"uint256"}],"outputs":[{"name":"","type":"tuple[]","internalType":"struct LLMOracleTask.TaskResponse[]","components":[{"name":"responder","type":"address","internalType":"address"},{"name":"nonce","type":"uint256","internalType":"uint256"},{"name":"score","type":"uint256","internalType":"uint256"},{"name":"output","type":"bytes","internalType":"bytes"},{"name":"metadata","type":"bytes","internalType":"bytes"}]}],"stateMutability":"view"},{"type":"function","name":"getValidations","inputs":[{"name":"taskId","type":"uint256","internalType":"uint256"}],"outputs":[{"name":"","type":"tuple[]","internalType":"struct LLMOracleTask.TaskValidation[]","components":[{"name":"validator","type":"address","internalType":"address"},{"name":"nonce","type":"uint256","internalType":"uint256"},{"name":"scores","type":"uint256[]","internalType":"uint256[]"},{"name":"metadata","type":"bytes","internalType":"bytes"}]}],"stateMutability":"view"},{"type":"function","name":"initialize","inputs":[{"name":"_oracleRegistry","type":"address","internalType":"address"},{"name":"_feeToken","type":"address","internalType":"address"},{"name":"_platformFee","type":"uint256","internalType":"uint256"},{"name":"_generationFee","type":"uint256","internalType":"uint256"},{"name":"_validationFee","type":"uint256","internalType":"uint256"},{"name":"_minScore","type":"uint256","internalType":"uint256"},{"name":"_maxScore","type":"uint256","internalType":"uint256"}],"outputs":[],"stateMutability":"nonpayable"},{"type":"function","name":"maxScore","inputs":[],"outputs":[{"name":"","type":"uint256","internalType":"uint256"}],"stateMutability":"view"},{"type":"function","name":"maximumParameters","inputs":[],"outputs":[{"name":"difficulty","type":"uint8","internalType":"uint8"},{"name":"numGenerations","type":"uint40","internalType":"uint40"},{"name":"numValidations","type":"uint40","internalType":"uint40"}],"stateMutability":"view"},{"type":"function","name":"minScore","inputs":[],"outputs":[{"name":"","type":"uint256","internalType":"uint256"}],"stateMutability":"view"},{"type":"function","name":"minimumParameters","inputs":[],"outputs":[{"name":"difficulty","type":"uint8","internalType":"uint8"},{"name":"numGenerations","type":"uint40","internalType":"uint40"},{"name":"numValidations","type":"uint40","internalType":"uint40"}],"stateMutability":"view"},{"type":"function","name":"nextTaskId","inputs":[],"outputs":[{"name":"","type":"uint256","internalType":"uint256"}],"stateMutability":"view"},{"type":"function","name":"owner","inputs":[],"outputs":[{"name":"","type":"address","internalType":"address"}],"stateMutability":"view"},{"type":"function","name":"platformFee","inputs":[],"outputs":[{"name":"","type":"uint256","internalType":"uint256"}],"stateMutability":"view"},{"type":"function","name":"platformFeeBalance","inputs":[],"outputs":[{"name":"","type":"uint256","internalType":"uint256"}],"stateMutability":"view"},{"type":"function","name":"proxiableUUID","inputs":[],"outputs":[{"name":"","type":"bytes32","internalType":"bytes32"}],"stateMutability":"view"},{"type":"function","name":"registry","inputs":[],"outputs":[{"name":"","type":"address","internalType":"contract LLMOracleRegistry"}],"stateMutability":"view"},{"type":"function","name":"renounceOwnership","inputs":[],"outputs":[],"stateMutability":"nonpayable"},{"type":"function","name":"request","inputs":[{"name":"protocol","type":"bytes32","internalType":"bytes32"},{"name":"input","type":"bytes","internalType":"bytes"},{"name":"models","type":"bytes","internalType":"bytes"},{"name":"parameters","type":"tuple","internalType":"struct LLMOracleTaskParameters","components":[{"name":"difficulty","type":"uint8","internalType":"uint8"},{"name":"numGenerations","type":"uint40","internalType":"uint40"},{"name":"numValidations","type":"uint40","internalType":"uint40"}]}],"outputs":[{"name":"","type":"uint256","internalType":"uint256"}],"stateMutability":"nonpayable"},{"type":"function","name":"requests","inputs":[{"name":"taskId","type":"uint256","internalType":"uint256"}],"outputs":[{"name":"requester","type":"address","internalType":"address"},{"name":"protocol","type":"bytes32","internalType":"bytes32"},{"name":"parameters","type":"tuple","internalType":"struct LLMOracleTaskParameters","components":[{"name":"difficulty","type":"uint8","internalType":"uint8"},{"name":"numGenerations","type":"uint40","internalType":"uint40"},{"name":"numValidations","type":"uint40","internalType":"uint40"}]},{"name":"status","type":"uint8","internalType":"enum LLMOracleTask.TaskStatus"},{"name":"generatorFee","type":"uint256","internalType":"uint256"},{"name":"validatorFee","type":"uint256","internalType":"uint256"},{"name":"platformFee","type":"uint256","internalType":"uint256"},{"name":"input","type":"bytes","internalType":"bytes"},{"name":"models","type":"bytes","internalType":"bytes"}],"stateMutability":"view"},{"type":"function","name":"respond","inputs":[{"name":"taskId","type":"uint256","internalType":"uint256"},{"name":"nonce","type":"uint256","internalType":"uint256"},{"name":"output","type":"bytes","internalType":"bytes"},{"name":"metadata","type":"bytes","internalType":"bytes"}],"outputs":[],"stateMutability":"nonpayable"},{"type":"function","name":"responses","inputs":[{"name":"taskId","type":"uint256","internalType":"uint256"},{"name":"","type":"uint256","internalType":"uint256"}],"outputs":[{"name":"responder","type":"address","internalType":"address"},{"name":"nonce","type":"uint256","internalType":"uint256"},{"name":"score","type":"uint256","internalType":"uint256"},{"name":"output","type":"bytes","internalType":"bytes"},{"name":"metadata","type":"bytes","internalType":"bytes"}],"stateMutability":"view"},{"type":"function","name":"setFees","inputs":[{"name":"_platformFee","type":"uint256","internalType":"uint256"},{"name":"_generationFee","type":"uint256","internalType":"uint256"},{"name":"_validationFee","type":"uint256","internalType":"uint256"}],"outputs":[],"stateMutability":"nonpayable"},{"type":"function","name":"setGenerationDeviationFactor","inputs":[{"name":"_generationDeviationFactor","type":"uint64","internalType":"uint64"}],"outputs":[],"stateMutability":"nonpayable"},{"type":"function","name":"setParameters","inputs":[{"name":"minimums","type":"tuple","internalType":"struct LLMOracleTaskParameters","components":[{"name":"difficulty","type":"uint8","internalType":"uint8"},{"name":"numGenerations","type":"uint40","internalType":"uint40"},{"name":"numValidations","type":"uint40","internalType":"uint40"}]},{"name":"maximums","type":"tuple","internalType":"struct LLMOracleTaskParameters","components":[{"name":"difficulty","type":"uint8","internalType":"uint8"},{"name":"numGenerations","type":"uint40","internalType":"uint40"},{"name":"numValidations","type":"uint40","internalType":"uint40"}]}],"outputs":[],"stateMutability":"nonpayable"},{"type":"function","name":"transferOwnership","inputs":[{"name":"newOwner","type":"address","internalType":"address"}],"outputs":[],"stateMutability":"nonpayable"},{"type":"function","name":"upgradeToAndCall","inputs":[{"name":"newImplementation","type":"address","internalType":"address"},{"name":"data","type":"bytes","internalType":"bytes"}],"outputs":[],"stateMutability":"payable"},{"type":"function","name":"validate","inputs":[{"name":"taskId","type":"uint256","internalType":"uint256"},{"name":"nonce","type":"uint256","internalType":"uint256"},{"name":"scores","type":"uint256[]","internalType":"uint256[]"},{"name":"metadata","type":"bytes","internalType":"bytes"}],"outputs":[],"stateMutability":"nonpayable"},{"type":"function","name":"validationFee","inputs":[],"outputs":[{"name":"","type":"uint256","internalType":"uint256"}],"stateMutability":"view"},{"type":"function","name":"validations","inputs":[{"name":"taskId","type":"uint256","internalType":"uint256"},{"name":"","type":"uint256","internalType":"uint256"}],"outputs":[{"name":"validator","type":"address","internalType":"address"},{"name":"nonce","type":"uint256","internalType":"uint256"},{"name":"metadata","type":"bytes","internalType":"bytes"}],"stateMutability":"view"},{"type":"function","name":"withdrawPlatformFees","inputs":[],"outputs":[],"stateMutability":"nonpayable"},{"type":"event","name":"Initialized","inputs":[{"name":"version","type":"uint64","indexed":false,"internalType":"uint64"}],"anonymous":false},{"type":"event","name":"OwnershipTransferred","inputs":[{"name":"previousOwner","type":"address","indexed":true,"internalType":"address"},{"name":"newOwner","type":"address","indexed":true,"internalType":"address"}],"anonymous":false},{"type":"event","name":"Request","inputs":[{"name":"taskId","type":"uint256","indexed":true,"internalType":"uint256"},{"name":"requester","type":"address","indexed":true,"internalType":"address"},{"name":"protocol","type":"bytes32","indexed":true,"internalType":"bytes32"}],"anonymous":false},{"type":"event","name":"Response","inputs":[{"name":"taskId","type":"uint256","indexed":true,"internalType":"uint256"},{"name":"responder","type":"address","indexed":true,"internalType":"address"}],"anonymous":false},{"type":"event","name":"StatusUpdate","inputs":[{"name":"taskId","type":"uint256","indexed":true,"internalType":"uint256"},{"name":"protocol","type":"bytes32","indexed":true,"internalType":"bytes32"},{"name":"statusBefore","type":"uint8","indexed":false,"internalType":"enum LLMOracleTask.TaskStatus"},{"name":"statusAfter","type":"uint8","indexed":false,"internalType":"enum LLMOracleTask.TaskStatus"}],"anonymous":false},{"type":"event","name":"Upgraded","inputs":[{"name":"implementation","type":"address","indexed":true,"internalType":"address"}],"anonymous":false},{"type":"event","name":"Validation","inputs":[{"name":"taskId","type":"uint256","indexed":true,"internalType":"uint256"},{"name":"validator","type":"address","indexed":true,"internalType":"address"}],"anonymous":false},{"type":"error","name":"AddressEmptyCode","inputs":[{"name":"target","type":"address","internalType":"address"}]},{"type":"error","name":"AlreadyResponded","inputs":[{"name":"taskId","type":"uint256","internalType":"uint256"},{"name":"oracle","type":"address","internalType":"address"}]},{"type":"error","name":"ComputeError","inputs":[]},{"type":"error","name":"ERC1967InvalidImplementation","inputs":[{"name":"implementation","type":"address","internalType":"address"}]},{"type":"error","name":"ERC1967NonPayable","inputs":[]},{"type":"error","name":"FailedCall","inputs":[]},{"type":"error","name":"InsufficientFees","inputs":[{"name":"have","type":"uint256","internalType":"uint256"},{"name":"want","type":"uint256","internalType":"uint256"}]},{"type":"error","name":"InvalidInitialization","inputs":[]},{"type":"error","name":"InvalidInput","inputs":[]},{"type":"error","name":"InvalidNonce","inputs":[{"name":"taskId","type":"uint256","internalType":"uint256"},{"name":"nonce","type":"uint256","internalType":"uint256"}]},{"type":"error","name":"InvalidParameterRange","inputs":[{"name":"have","type":"uint256","internalType":"uint256"},{"name":"min","type":"uint256","internalType":"uint256"},{"name":"max","type":"uint256","internalType":"uint256"}]},{"type":"error","name":"InvalidTaskStatus","inputs":[{"name":"taskId","type":"uint256","internalType":"uint256"},{"name":"have","type":"uint8","internalType":"enum LLMOracleTask.TaskStatus"},{"name":"want","type":"uint8","internalType":"enum LLMOracleTask.TaskStatus"}]},{"type":"error","name":"InvalidValidation","inputs":[{"name":"taskId","type":"uint256","internalType":"uint256"},{"name":"validator","type":"address","internalType":"address"}]},{"type":"error","name":"NotInitializing","inputs":[]},{"type":"error","name":"NotRegistered","inputs":[{"name":"oracle","type":"address","internalType":"address"}]},{"type":"error","name":"NotWhitelisted","inputs":[{"name":"validator","type":"address","internalType":"address"}]},{"type":"error","name":"OwnableInvalidOwner","inputs":[{"name":"owner","type":"address","internalType":"address"}]},{"type":"error","name":"OwnableUnauthorizedAccount","inputs":[{"name":"account","type":"address","internalType":"address"}]},{"type":"error","name":"UUPSUnauthorizedCallContext","inputs":[]},{"type":"error","name":"UUPSUnsupportedProxiableUUID","inputs":[{"name":"slot","type":"bytes32","internalType":"bytes32"}]}],"bytecode":{"object":"0x60a060405230608052348015610013575f80fd5b5061001c610021565b6100d3565b7ff0c57e16840df040f15088dc2f81fe391c3923bec73e23a9662efc9c229c6a00805468010000000000000000900460ff16156100715760405163f92ee8a960e01b815260040160405180910390fd5b80546001600160401b03908116146100d05780546001600160401b0319166001600160401b0390811782556040519081527fc7f505b2f371ae2175ee4913f4499e1f2633a7b5936321eed1cdaeb6115181d29060200160405180910390a15b50565b608051613e966100f95f395f81816122d4015281816122fd01526124410152613e965ff3fe6080604052600436106101e5575f3560e01c806381d12c5811610108578063cec10c111161009d578063e9ca8b461161006d578063e9ca8b461461060b578063edbf4ac21461062a578063f2fde38b14610649578063f8bbf27e14610668578063fdc3d8d71461067d575f80fd5b8063cec10c11146105a4578063d0b7830b146105c3578063e3c98ba0146105d7578063e76aec11146105ec575f80fd5b8063b13fc8f4116100d8578063b13fc8f4146104f5578063b584e6171461052f578063b84b8ac71461054e578063ca287c351461056d575f80fd5b806381d12c581461045b5780638da5cb5b1461048f5780639a1b4b38146104a3578063ad3cb1cc146104b8575f80fd5b80634b5a82d11161017e5780636b4d5bfc1161014e5780636b4d5bfc146103dd578063715018a6146103fc57806371ee2ce1146104105780637b1039991461043c575f80fd5b80634b5a82d11461034f5780634f1ef2861461037d57806352d1902d14610392578063647846a5146103a6575f80fd5b806326232a2e116101b957806326232a2e146102b25780632bafb614146102c657806332f77659146102f7578063434dbaee14610323575f80fd5b806257efc2146101e95780630566f18a1461022257806313c2bedc146102455780631da7bc9a1461025a575b5f80fd5b3480156101f4575f80fd5b506102086102033660046131f2565b610692565b604051610219959493929190613240565b60405180910390f35b34801561022d575f80fd5b5061023760015481565b604051908152602001610219565b348015610250575f80fd5b5061023760065481565b348015610265575f80fd5b5060055461028b9060ff81169064ffffffffff6101008204811691600160301b90041683565b6040805160ff909416845264ffffffffff9283166020850152911690820152606001610219565b3480156102bd575f80fd5b506102375f5481565b3480156102d1575f80fd5b5060045461028b9060ff81169064ffffffffff6101008204811691600160301b90041683565b348015610302575f80fd5b5061031661031136600461328a565b6107f4565b60405161021991906132f4565b34801561032e575f80fd5b5061034261033d36600461328a565b610aaa565b6040516102199190613306565b34801561035a575f80fd5b5061036e6103693660046131f2565b610c12565b604051610219939291906133da565b61039061038b3660046134c1565b610ce2565b005b34801561039d575f80fd5b50610237610d01565b3480156103b1575f80fd5b506009546103c5906001600160a01b031681565b6040516001600160a01b039091168152602001610219565b3480156103e8575f80fd5b506103906103f7366004613548565b610d1c565b348015610407575f80fd5b50610390611263565b34801561041b575f80fd5b5061042f61042a36600461328a565b611276565b60405161021991906135f9565b348015610447575f80fd5b506008546103c5906001600160a01b031681565b348015610466575f80fd5b5061047a61047536600461328a565b611424565b60405161021999989796959493929190613678565b34801561049a575f80fd5b506103c56115c4565b3480156104ae575f80fd5b5061023760075481565b3480156104c3575f80fd5b506104e8604051806040016040528060058152602001640352e302e360dc1b81525081565b6040516102199190613710565b348015610500575f80fd5b5061051461050f366004613738565b6115f2565b60408051938452602084019290925290820152606001610219565b34801561053a575f80fd5b50610390610549366004613752565b61168f565b348015610559575f80fd5b506103906105683660046137b4565b611a63565b348015610578575f80fd5b5060035461058c906001600160401b031681565b6040516001600160401b039091168152602001610219565b3480156105af575f80fd5b506103906105be3660046137e7565b611a8e565b3480156105ce575f80fd5b50610390611aa3565b3480156105e2575f80fd5b50610237600e5481565b3480156105f7575f80fd5b50610237610606366004613810565b611b3a565b348015610616575f80fd5b5061039061062536600461388d565b61210e565b348015610635575f80fd5b506103906106443660046138b3565b612139565b348015610654575f80fd5b5061039061066336600461390c565b61228c565b348015610673575f80fd5b5061023760025481565b348015610688575f80fd5b50610237600a5481565b600c602052815f5260405f2081815481106106ab575f80fd5b5f91825260209091206005909102018054600182015460028301546003840180546001600160a01b03909416965091945092916106e790613925565b80601f016020809104026020016040519081016040528092919081815260200182805461071390613925565b801561075e5780601f106107355761010080835404028352916020019161075e565b820191905f5260205f20905b81548152906001019060200180831161074157829003601f168201915b50505050509080600401805461077390613925565b80601f016020809104026020016040519081016040528092919081815260200182805461079f90613925565b80156107ea5780601f106107c1576101008083540402835291602001916107ea565b820191905f5260205f20905b8154815290600101906020018083116107cd57829003601f168201915b5050505050905085565b61082c6040518060a001604052805f6001600160a01b031681526020015f81526020015f815260200160608152602001606081525090565b5f828152600c60209081526040808320600b90925290912060039081015460ff168181111561085d5761085d613650565b146108a0575f838152600b602052604090819020600390810154915163091e2f1760e31b815261089792869260ff90911691600401613957565b60405180910390fd5b5f815f815481106108b3576108b3613980565b5f9182526020909120600590910201600281015490915060015b835481101561094c57818482815481106108e9576108e9613980565b905f5260205f2090600502016002015411156109445783818154811061091157610911613980565b905f5260205f20906005020160020154915083818154811061093557610935613980565b905f5260205f20906005020192505b6001016108cd565b506040805160a08101825283546001600160a01b03168152600184015460208201526002840154918101919091526003830180548491606084019161099090613925565b80601f01602080910402602001604051908101604052809291908181526020018280546109bc90613925565b8015610a075780601f106109de57610100808354040283529160200191610a07565b820191905f5260205f20905b8154815290600101906020018083116109ea57829003601f168201915b50505050508152602001600482018054610a2090613925565b80601f0160208091040260200160405190810160405280929190818152602001828054610a4c90613925565b8015610a975780601f10610a6e57610100808354040283529160200191610a97565b820191905f5260205f20905b815481529060010190602001808311610a7a57829003601f168201915b5050505050815250509350505050919050565b6060600d5f8381526020019081526020015f20805480602002602001604051908101604052809291908181526020015f905b82821015610c07575f848152602090819020604080516080810182526004860290920180546001600160a01b031683526001810154838501526002810180548351818702810187018552818152949592949386019392830182828015610b5f57602002820191905f5260205f20905b815481526020019060010190808311610b4b575b50505050508152602001600382018054610b7890613925565b80601f0160208091040260200160405190810160405280929190818152602001828054610ba490613925565b8015610bef5780601f10610bc657610100808354040283529160200191610bef565b820191905f5260205f20905b815481529060010190602001808311610bd257829003601f168201915b50505050508152505081526020019060010190610adc565b505050509050919050565b600d602052815f5260405f208181548110610c2b575f80fd5b5f9182526020909120600490910201805460018201546003830180546001600160a01b03909316955090935090610c6190613925565b80601f0160208091040260200160405190810160405280929190818152602001828054610c8d90613925565b8015610cd85780601f10610caf57610100808354040283529160200191610cd8565b820191905f5260205f20905b815481529060010190602001808311610cbb57829003601f168201915b5050505050905083565b610cea6122c9565b610cf38261236d565b610cfd8282612375565b5050565b5f610d0a612436565b505f80516020613e4183398151915290565b600854604051635f5b248b60e01b81526001916001600160a01b031690635f5b248b90610d4f9033908590600401613994565b602060405180830381865afa158015610d6a573d5f803e3d5ffd5b505050506040513d601f19601f82011682018060405250810190610d8e91906139c1565b610dad5760405163bfc6c33760e01b8152336004820152602401610897565b866002805f838152600b6020526040902060039081015460ff1690811115610dd757610dd7613650565b14610e11575f828152600b60205260409081902060030154905163091e2f1760e31b815261089791849160ff909116908490600401613957565b600854604051633af32abf60e01b81523360048201819052916001600160a01b031690633af32abf90602401602060405180830381865afa158015610e58573d5f803e3d5ffd5b505050506040513d601f19601f82011682018060405250810190610e7c91906139c1565b610ea457604051636f8bf18b60e11b81526001600160a01b0382166004820152602401610897565b5f8a8152600b602052604090206002810154610100900464ffffffffff168814610eea576040516355c56a4560e11b8152600481018c9052336024820152604401610897565b5f5b88811015610f8c576007548a8a83818110610f0957610f09613980565b905060200201351180610f3557506006548a8a83818110610f2c57610f2c613980565b90506020020135105b15610f8457898982818110610f4c57610f4c613980565b6007546006546040516371a6675960e11b81526020909302949094013560048301526024820152604481019290925250606401610897565b600101610eec565b505f5b6002820154610100900464ffffffffff16811015611011575f8c8152600c60205260409020805433919083908110610fc957610fc9613980565b5f9182526020909120600590910201546001600160a01b031603611009576040516301011bf360e71b8152600481018d9052336024820152604401610897565b600101610f8f565b505f5b5f8c8152600d6020526040902054811015611093575f8c8152600d6020526040902080543391908390811061104b5761104b613980565b5f9182526020909120600490910201546001600160a01b03160361108b576040516301011bf360e71b8152600481018d9052336024820152604401610897565b600101611014565b5061109f8b828c61247f565b600d5f8c81526020019081526020015f206040518060800160405280336001600160a01b031681526020018c81526020018b8b808060200260200160405190810160405280939291908181526020018383602002808284375f92019190915250505090825250604080516020601f8c018190048102820181019092528a815291810191908b908b90819084018382808284375f920182905250939094525050835460018082018655948252602091829020845160049092020180546001600160a01b0319166001600160a01b0390921691909117815583820151948101949094556040830151805193949361119e935060028501929190910190613195565b50606082015160038201906111b39082613a2b565b50506040513391508c907fa1afe65d2285036595be8f15025c4421a593141666e15e5a980e742920646b1e905f90a360028101545f8c8152600d6020526040902054600160301b90910464ffffffffff16148015611255576003828101805460ff1916600183021790555081600101548c5f80516020613e2183398151915260026003604051611244929190613ae5565b60405180910390a36112558c6124f8565b505050505050505050505050565b61126b612912565b6112745f612944565b565b6060600c5f8381526020019081526020015f20805480602002602001604051908101604052809291908181526020015f905b82821015610c07575f8481526020908190206040805160a0810182526005860290920180546001600160a01b0316835260018101549383019390935260028301549082015260038201805491929160608401919061130590613925565b80601f016020809104026020016040519081016040528092919081815260200182805461133190613925565b801561137c5780601f106113535761010080835404028352916020019161137c565b820191905f5260205f20905b81548152906001019060200180831161135f57829003601f168201915b5050505050815260200160048201805461139590613925565b80601f01602080910402602001604051908101604052809291908181526020018280546113c190613925565b801561140c5780601f106113e35761010080835404028352916020019161140c565b820191905f5260205f20905b8154815290600101906020018083116113ef57829003601f168201915b505050505081525050815260200190600101906112a8565b600b60209081525f918252604091829020805460018201548451606081018652600284015460ff808216835264ffffffffff6101008304811697840197909752600160301b9091049095169581019590955260038301546004840154600585015460068601546007870180546001600160a01b03909716999598959794909516959294919390929091906114b790613925565b80601f01602080910402602001604051908101604052809291908181526020018280546114e390613925565b801561152e5780601f106115055761010080835404028352916020019161152e565b820191905f5260205f20905b81548152906001019060200180831161151157829003601f168201915b50505050509080600801805461154390613925565b80601f016020809104026020016040519081016040528092919081815260200182805461156f90613925565b80156115ba5780601f10611591576101008083540402835291602001916115ba565b820191905f5260205f20905b81548152906001019060200180831161159d57829003601f168201915b5050505050905089565b7f9016d09d72d40fdae2fd8ceac6b6234c7706214fd39c1cd1e609a0528c199300546001600160a01b031690565b5f8080806116036020860186613b0e565b60ff166002901b90506001548161161a9190613b3d565b92506002548161162a9190613b3d565b91508161163d6060870160408801613b66565b64ffffffffff1661164e9190613b3d565b6116589084613b81565b6116686040870160208801613b66565b64ffffffffff166116799190613b3d565b5f546116859190613b81565b9350509193909250565b600854604051635f5b248b60e01b81525f916001600160a01b031690635f5b248b906116c19033908590600401613994565b602060405180830381865afa1580156116dc573d5f803e3d5ffd5b505050506040513d601f19601f8201168201806040525081019061170091906139c1565b61171f5760405163bfc6c33760e01b8152336004820152602401610897565b866001805f838152600b6020526040902060039081015460ff169081111561174957611749613650565b14611783575f828152600b60205260409081902060030154905163091e2f1760e31b815261089791849160ff909116908490600401613957565b5f898152600b60205260408120905b5f8b8152600c6020526040902054811015611811575f8b8152600c602052604090208054339190839081106117c9576117c9613980565b5f9182526020909120600590910201546001600160a01b031603611809576040516301011bf360e71b8152600481018c9052336024820152604401610897565b600101611792565b5061181d8a828b61247f565b5f6040518060a00160405280336001600160a01b031681526020018b81526020015f81526020018a8a8080601f0160208091040260200160405190810160405280939291908181526020018383808284375f92019190915250505090825250604080516020601f8b0181900481028201810190925289815291810191908a908a90819084018382808284375f9201829052509390945250508d8152600c6020908152604080832080546001808201835591855293839020865160059095020180546001600160a01b0319166001600160a01b03909516949094178455918501519183019190915583015160028201556060830151929350839290915060038201906119289082613a2b565b506080820151600482019061193d9082613a2b565b50506040513391508c907f6c809136a3b8faf74ae9e955b7e7b758baa66bde976764a29fa74a4eb1e3702e905f90a36002820154600160301b900464ffffffffff165f03611993576119933383600401546129b4565b60028201545f8c8152600c602052604090205461010090910464ffffffffff16148015611255576002830154600160301b900464ffffffffff165f03611a15576003838101805460ff19168217905560018085015460405190928f925f80516020613e2183398151915292611a089290613ae5565b60405180910390a3611255565b60038301805460ff1916600290811790915560018085015460405190928f925f80516020613e2183398151915292611a4d9290613ae5565b60405180910390a3505050505050505050505050565b611a6b612912565b816004611a788282613b94565b508190506005611a888282613b94565b50505050565b611a96612912565b5f92909255600155600255565b611aab612912565b6009546001600160a01b031663a9059cbb611ac46115c4565b600e546040516001600160e01b031960e085901b1681526001600160a01b03909216600483015260248201526044016020604051808303815f875af1158015611b0f573d5f803e3d5ffd5b505050506040513d601f19601f82011682018060405250810190611b3391906139c1565b505f600e55565b6004545f90829060ff16611b516020830183613b0e565b60ff161080611b73575060055460ff16611b6e6020830183613b0e565b60ff16115b15611bbe57611b856020820182613b0e565b600480546005546040516371a6675960e11b815260ff948516938101939093529083166024830152919091166044820152606401610897565b600454610100900464ffffffffff16611bdd6040830160208401613b66565b64ffffffffff161080611c135750600554610100900464ffffffffff16611c0a6040830160208401613b66565b64ffffffffff16115b15611c6b57611c286040820160208301613b66565b600480546005546040516371a6675960e11b815264ffffffffff948516938101939093526101009182900484166024840152049091166044820152606401610897565b600454600160301b900464ffffffffff16611c8c6060830160408401613b66565b64ffffffffff161080611cc45750600554600160301b900464ffffffffff16611cbb6060830160408401613b66565b64ffffffffff16115b15611d1e57611cd96060820160408301613b66565b600480546005546040516371a6675960e11b815264ffffffffff94851693810193909352600160301b9182900484166024840152049091166044820152606401610897565b5f805f611d2a866115f2565b92509250925087515f03611d515760405163b4fa3fb360e01b815260040160405180910390fd5b600954604051636eb1769f60e11b81523360048201523060248201525f916001600160a01b03169063dd62ed3e90604401602060405180830381865afa158015611d9d573d5f803e3d5ffd5b505050506040513d601f19601f82011682018060405250810190611dc19190613c19565b905083811015611dee576040516311e9ebaf60e31b81526004810182905260248101859052604401610897565b6009546040516370a0823160e01b81523360048201525f916001600160a01b0316906370a0823190602401602060405180830381865afa158015611e34573d5f803e3d5ffd5b505050506040513d601f19601f82011682018060405250810190611e589190613c19565b905084811015611e85576040516311e9ebaf60e31b81526004810182905260248101869052604401610897565b5f54600e5f828254611e979190613b81565b90915550506009546040516323b872dd60e01b8152336004820152306024820152604481018790526001600160a01b03909116906323b872dd906064016020604051808303815f875af1158015611ef0573d5f803e3d5ffd5b505050506040513d601f19601f82011682018060405250810190611f1491906139c1565b50600a8054600181019091556040518c90339083907f7f371482986a3450b759cc4a079353a8eaa36a650b5eba1fb9c00693026f254a905f90a46040805161012081018252338152602081018e9052908101611f75368c90038c018c613c30565b8152602001600181526020018681526020018581526020015f5481526020018c81526020018b815250600b5f8381526020019081526020015f205f820151815f015f6101000a8154816001600160a01b0302191690836001600160a01b03160217905550602082015181600101556040820151816002015f820151815f015f6101000a81548160ff021916908360ff1602179055506020820151815f0160016101000a81548164ffffffffff021916908364ffffffffff1602179055506040820151815f0160066101000a81548164ffffffffff021916908364ffffffffff16021790555050506060820151816003015f6101000a81548160ff0219169083600381111561208557612085613650565b02179055506080820151600482015560a0820151600582015560c0820151600682015560e082015160078201906120bc9082613a2b565b5061010082015160088201906120d29082613a2b565b509050508b815f80516020613e218339815191525f60016040516120f7929190613ae5565b60405180910390a39b9a5050505050505050505050565b612116612912565b6003805467ffffffffffffffff19166001600160401b0392909216919091179055565b7ff0c57e16840df040f15088dc2f81fe391c3923bec73e23a9662efc9c229c6a008054600160401b810460ff1615906001600160401b03165f8115801561217d5750825b90505f826001600160401b031660011480156121985750303b155b9050811580156121a6575080155b156121c45760405163f92ee8a960e01b815260040160405180910390fd5b845467ffffffffffffffff1916600117855583156121ee57845460ff60401b1916600160401b1785555b6121f733612aa8565b6122048a8a8a8a8a612ab9565b600880546001600160a01b03808f166001600160a01b03199283161790925560098054928e16929091169190911790556001600a55831561125557845460ff60401b19168555604051600181527fc7f505b2f371ae2175ee4913f4499e1f2633a7b5936321eed1cdaeb6115181d29060200160405180910390a1505050505050505050505050565b612294612912565b6001600160a01b0381166122bd57604051631e4fbdf760e01b81525f6004820152602401610897565b6122c681612944565b50565b306001600160a01b037f000000000000000000000000000000000000000000000000000000000000000016148061234f57507f00000000000000000000000000000000000000000000000000000000000000006001600160a01b03166123435f80516020613e41833981519152546001600160a01b031690565b6001600160a01b031614155b156112745760405163703e46dd60e11b815260040160405180910390fd5b6122c6612912565b816001600160a01b03166352d1902d6040518163ffffffff1660e01b8152600401602060405180830381865afa9250505080156123cf575060408051601f3d908101601f191682019092526123cc91810190613c19565b60015b6123f757604051634c9c8ce360e01b81526001600160a01b0383166004820152602401610897565b5f80516020613e41833981519152811461242757604051632a87526960e21b815260048101829052602401610897565b6124318383612b56565b505050565b306001600160a01b037f000000000000000000000000000000000000000000000000000000000000000016146112745760405163703e46dd60e11b815260040160405180910390fd5b81546040515f916124a991869160078701916001600160a01b039091169033908790602001613ca1565b60408051601f198184030181529190526002840154815160208301209192505f1960ff9091161c11611a88576040516306427aeb60e01b81526004810185905260248101839052604401610897565b5f818152600b60205260408120905b6002820154610100900464ffffffffff168110156127545760028201545f90600160301b900464ffffffffff166001600160401b0381111561254b5761254b613424565b604051908082528060200260200182016040528015612574578160200160208202803683370190505b5090505f5b6002840154600160301b900464ffffffffff16811015612600575f858152600d602052604090208054829081106125b2576125b2613980565b905f5260205f20906004020160020183815481106125d2576125d2613980565b905f5260205f2001548282815181106125ed576125ed613980565b6020908102919091010152600101612579565b505f8061260c83612bab565b915091505f805f5b6002880154600160301b900464ffffffffff168110156126f2575f670de0b6b3a764000087838151811061264a5761264a613980565b602002602001015161265c9190613b3d565b9050846126698783613b81565b10158015612680575061267c8686613b81565b8111155b156126e95761268f8185613b81565b93508261269b81613d6a565b9350506126e9600d5f8c81526020019081526020015f2083815481106126c3576126c3613980565b5f91825260209091206004909102015460058b01546001600160a01b03909116906129b4565b50600101612614565b505f8115612709576127048284613d96565b61270b565b5f5b5f8a8152600c60205260409020805491925082918990811061272f5761272f613980565b5f91825260209091206002600590920201015550506001909401935061250792505050565b5060028101545f90610100900464ffffffffff166001600160401b0381111561277f5761277f613424565b6040519080825280602002602001820160405280156127a8578160200160208202803683370190505b5090505f5b6002830154610100900464ffffffffff16811015612819575f848152600c602052604090208054829081106127e4576127e4613980565b905f5260205f2090600502016002015482828151811061280657612806613980565b60209081029190910101526001016127ad565b505f8061282583612bab565b915091505f5b6002850154610100900464ffffffffff1681101561290a57600354829061285c9085906001600160401b0316613b3d565b670de0b6b3a764000086848151811061287757612877613980565b60200260200101516128899190613b3d565b6128939190613b81565b106128e7575f868152600c6020526040902080546128e29190839081106128bc576128bc613980565b5f91825260209091206005909102015460048701546001600160a01b03909116906129b4565b612902565b8460040154600e5f8282546128fc9190613b81565b90915550505b60010161282b565b505050505050565b3361291b6115c4565b6001600160a01b0316146112745760405163118cdaa760e01b8152336004820152602401610897565b7f9016d09d72d40fdae2fd8ceac6b6234c7706214fd39c1cd1e609a0528c19930080546001600160a01b031981166001600160a01b03848116918217845560405192169182907f8be0079c531659141344cd1fd0a4f28419497f9722a3daafe3b4186f6b6457e0905f90a3505050565b600954604051636eb1769f60e11b81523060048201526001600160a01b0384811660248301529091169063095ea7b39084908490849063dd62ed3e90604401602060405180830381865afa158015612a0e573d5f803e3d5ffd5b505050506040513d601f19601f82011682018060405250810190612a329190613c19565b612a3c9190613b81565b6040516001600160e01b031960e085901b1681526001600160a01b03909216600483015260248201526044016020604051808303815f875af1158015612a84573d5f803e3d5ffd5b505050506040513d601f19601f8201168201806040525081019061243191906139c1565b612ab0612c09565b6122c681612c52565b612ac1612c09565b60038054600167ffffffffffffffff19909116811790915560408051606080820183528382526020808301949094525f91830191909152600480546101016affffffffffffffffffffff199182161790915582519182018352600a80835293820184905291019190915260058054909116660a000000000a0a179055612b48858585611a8e565b600691909155600755505050565b612b5f82612c5a565b6040516001600160a01b038316907fbc7cd75a20ee27fd9adebab32041f755214dbc6bffa90cc0225b39da2e5c2d3b905f90a2805115612ba3576124318282612cbd565b610cfd612d31565b5f805f80612bb885612d50565b915091508092505f80612bd384670de0b6b3a7640000612e23565b9150915081612bf557604051630e9e2ceb60e11b815260040160405180910390fd5b612bfe81612e6a565b955050505050915091565b7ff0c57e16840df040f15088dc2f81fe391c3923bec73e23a9662efc9c229c6a0054600160401b900460ff1661127457604051631afcd79f60e31b815260040160405180910390fd5b612294612c09565b806001600160a01b03163b5f03612c8f57604051634c9c8ce360e01b81526001600160a01b0382166004820152602401610897565b5f80516020613e4183398151915280546001600160a01b0319166001600160a01b0392909216919091179055565b60605f80846001600160a01b031684604051612cd99190613db5565b5f60405180830381855af49150503d805f8114612d11576040519150601f19603f3d011682016040523d82523d5f602084013e612d16565b606091505b5091509150612d26858383612fbd565b925050505b92915050565b34156112745760405163b398979f60e01b815260040160405180910390fd5b5f80612d5b8361301c565b90505f805b8451811015612dd5575f670de0b6b3a7640000868381518110612d8557612d85613980565b6020026020010151612d979190613b3d565b90505f612da48583613dcb565b9050612dbf612db38280613df1565b60ff81901d9081011890565b612dc99085613b81565b93505050600101612d60565b505f80612deb8651670de0b6b3a7640000612e23565b9150915081612e0d57604051630e9e2ceb60e11b815260040160405180910390fd5b612e198360018361308c565b9450505050915091565b5f80835f03612e375750600190505f612e63565b83830283858281612e4a57612e4a613d82565b0414612e5c575f809250925050612e63565b6001925090505b9250929050565b5f60018211612e77575090565b816001600160801b8210612e905760809190911c9060401b5b600160401b8210612ea65760409190911c9060201b5b6401000000008210612ebd5760209190911c9060101b5b620100008210612ed25760109190911c9060081b5b6101008210612ee65760089190911c9060041b5b60108210612ef95760049190911c9060021b5b60048210612f055760011b5b600302600190811c90818581612f1d57612f1d613d82565b048201901c90506001818581612f3557612f35613d82565b048201901c90506001818581612f4d57612f4d613d82565b048201901c90506001818581612f6557612f65613d82565b048201901c90506001818581612f7d57612f7d613d82565b048201901c90506001818581612f9557612f95613d82565b048201901c9050612fb4818581612fae57612fae613d82565b04821190565b90039392505050565b606082612fd257612fcd82613142565b613015565b8151158015612fe957506001600160a01b0384163b155b1561301257604051639996b31560e01b81526001600160a01b0385166004820152602401610897565b50805b9392505050565b5f80805b835181101561307b575f8061304e86848151811061304057613040613980565b60200260200101518561316b565b915091508161307057604051630e9e2ceb60e11b815260040160405180910390fd5b925050600101613020565b5061301581670de0b6b3a764000085515b5f838302815f1985870982811083820303915050805f036130c0578382816130b6576130b6613d82565b0492505050613015565b8084116130d7576130d76003851502601118613184565b5f848688095f868103871696879004966002600389028118808a02820302808a02820302808a02820302808a02820302808a02820302808a02909103029181900381900460010186841190950394909402919094039290920491909117919091029150509392505050565b8051156131525780518082602001fd5b60405163d6bda27560e01b815260040160405180910390fd5b5f8083830184811015612e5c575f809250925050612e63565b634e487b715f52806020526024601cfd5b828054828255905f5260205f209081019282156131ce579160200282015b828111156131ce5782518255916020019190600101906131b3565b506131da9291506131de565b5090565b5b808211156131da575f81556001016131df565b5f8060408385031215613203575f80fd5b50508035926020909101359150565b5f81518084528060208401602086015e5f602082860101526020601f19601f83011685010191505092915050565b60018060a01b038616815284602082015283604082015260a060608201525f61326c60a0830185613212565b828103608084015261327e8185613212565b98975050505050505050565b5f6020828403121561329a575f80fd5b5035919050565b60018060a01b03815116825260208101516020830152604081015160408301525f606082015160a060608501526132db60a0850182613212565b905060808301518482036080860152612d268282613212565b602081525f61301560208301846132a1565b5f602082016020835280845180835260408501915060408160051b8601019250602086015f5b828110156133ce57868503603f19018452815180516001600160a01b031686526020808201518188015260408083015160809189018290528051918901829052909101905f9060a08901905b8083101561339b5783518252602082019150602084019350600183019250613378565b506060840151935088810360608a01526133b58185613212565b985050506020958601959390930192505060010161332c565b50929695505050505050565b60018060a01b0384168152826020820152606060408201525f6134006060830184613212565b95945050505050565b80356001600160a01b038116811461341f575f80fd5b919050565b634e487b7160e01b5f52604160045260245ffd5b5f82601f830112613447575f80fd5b81356001600160401b0381111561346057613460613424565b604051601f8201601f19908116603f011681016001600160401b038111828210171561348e5761348e613424565b6040528181528382016020018510156134a5575f80fd5b816020850160208301375f918101602001919091529392505050565b5f80604083850312156134d2575f80fd5b6134db83613409565b915060208301356001600160401b038111156134f5575f80fd5b61350185828601613438565b9150509250929050565b5f8083601f84011261351b575f80fd5b5081356001600160401b03811115613531575f80fd5b602083019150836020828501011115612e63575f80fd5b5f805f805f806080878903121561355d575f80fd5b863595506020870135945060408701356001600160401b03811115613580575f80fd5b8701601f81018913613590575f80fd5b80356001600160401b038111156135a5575f80fd5b8960208260051b84010111156135b9575f80fd5b6020919091019450925060608701356001600160401b038111156135db575f80fd5b6135e789828a0161350b565b979a9699509497509295939492505050565b5f602082016020835280845180835260408501915060408160051b8601019250602086015f5b828110156133ce57603f1987860301845261363b8583516132a1565b9450602093840193919091019060010161361f565b634e487b7160e01b5f52602160045260245ffd5b6004811061367457613674613650565b9052565b60018060a01b038a16815288602082015260ff885116604082015264ffffffffff602089015116606082015264ffffffffff60408901511660808201526136c260a0820188613664565b8560c08201528460e0820152836101008201526101606101208201525f6136ed610160830185613212565b8281036101408401526137008185613212565b9c9b505050505050505050505050565b602081525f6130156020830184613212565b5f60608284031215613732575f80fd5b50919050565b5f60608284031215613748575f80fd5b6130158383613722565b5f805f805f8060808789031215613767575f80fd5b863595506020870135945060408701356001600160401b0381111561378a575f80fd5b61379689828a0161350b565b90955093505060608701356001600160401b038111156135db575f80fd5b5f8060c083850312156137c5575f80fd5b6137cf8484613722565b91506137de8460608501613722565b90509250929050565b5f805f606084860312156137f9575f80fd5b505081359360208301359350604090920135919050565b5f805f8060c08587031215613823575f80fd5b8435935060208501356001600160401b0381111561383f575f80fd5b61384b87828801613438565b93505060408501356001600160401b03811115613866575f80fd5b61387287828801613438565b9250506138828660608701613722565b905092959194509250565b5f6020828403121561389d575f80fd5b81356001600160401b0381168114613015575f80fd5b5f805f805f805f60e0888a0312156138c9575f80fd5b6138d288613409565b96506138e060208901613409565b96999698505050506040850135946060810135946080820135945060a0820135935060c0909101359150565b5f6020828403121561391c575f80fd5b61301582613409565b600181811c9082168061393957607f821691505b60208210810361373257634e487b7160e01b5f52602260045260245ffd5b8381526060810161396b6020830185613664565b6139786040830184613664565b949350505050565b634e487b7160e01b5f52603260045260245ffd5b6001600160a01b038316815260408101600283106139b4576139b4613650565b8260208301529392505050565b5f602082840312156139d1575f80fd5b81518015158114613015575f80fd5b601f82111561243157805f5260205f20601f840160051c81016020851015613a055750805b601f840160051c820191505b81811015613a24575f8155600101613a11565b5050505050565b81516001600160401b03811115613a4457613a44613424565b613a5881613a528454613925565b846139e0565b6020601f821160018114613a8a575f8315613a735750848201515b5f19600385901b1c1916600184901b178455613a24565b5f84815260208120601f198516915b82811015613ab95787850151825560209485019460019092019101613a99565b5084821015613ad657868401515f19600387901b60f8161c191681555b50505050600190811b01905550565b60408101613af38285613664565b6130156020830184613664565b60ff811681146122c6575f80fd5b5f60208284031215613b1e575f80fd5b813561301581613b00565b634e487b7160e01b5f52601160045260245ffd5b8082028115828204841417612d2b57612d2b613b29565b64ffffffffff811681146122c6575f80fd5b5f60208284031215613b76575f80fd5b813561301581613b54565b80820180821115612d2b57612d2b613b29565b8135613b9f81613b00565b60ff8116905081548160ff1982161783556020840135613bbe81613b54565b65ffffffffff008160081b169050808365ffffffffffff198416171784556040850135613bea81613b54565b6affffffffff0000000000008160301b16846affffffffffffffffffffff198516178317178555505050505050565b5f60208284031215613c29575f80fd5b5051919050565b5f6060828403128015613c41575f80fd5b50604051606081016001600160401b0381118282101715613c6457613c64613424565b6040528235613c7281613b00565b81526020830135613c8281613b54565b60208201526040830135613c9581613b54565b60408201529392505050565b8581525f808654613cb181613925565b600182168015613cc85760018114613ce357613d19565b60ff1983166020870152602082151583028701019350613d19565b895f5260205f205f5b83811015613d0e5781546020828a010152600182019150602081019050613cec565b505060208287010193505b505050613d37818760601b6bffffffffffffffffffffffff19169052565b613d55601482018660601b6bffffffffffffffffffffffff19169052565b60288101939093525050604801949350505050565b5f60018201613d7b57613d7b613b29565b5060010190565b634e487b7160e01b5f52601260045260245ffd5b5f82613db057634e487b7160e01b5f52601260045260245ffd5b500490565b5f82518060208501845e5f920191825250919050565b8181035f831280158383131683831282161715613dea57613dea613b29565b5092915050565b8082025f8212600160ff1b84141615613e0c57613e0c613b29565b8181058314821517612d2b57612d2b613b2956fe1c0a5e4b371d60717068c91e93b5e94c91d4c6d6c3fab36082a78f987e5a69f5360894a13ba1a3210667c828492db98dca3e2076cc3735a920a3ca505d382bbca2646970667358221220ea436402179790a4a9250d2b1104e8d30c1c11b00b6a847c700996129c68e59064736f6c634300081a0033","linkReferences":{}},"methodIdentifiers":{"UPGRADE_INTERFACE_VERSION()":"ad3cb1cc","feeToken()":"647846a5","generationDeviationFactor()":"ca287c35","generationFee()":"0566f18a","getBestResponse(uint256)":"32f77659","getFee((uint8,uint40,uint40))":"b13fc8f4","getResponses(uint256)":"71ee2ce1","getValidations(uint256)":"434dbaee","initialize(address,address,uint256,uint256,uint256,uint256,uint256)":"edbf4ac2","maxScore()":"9a1b4b38","maximumParameters()":"1da7bc9a","minScore()":"13c2bedc","minimumParameters()":"2bafb614","nextTaskId()":"fdc3d8d7","owner()":"8da5cb5b","platformFee()":"26232a2e","platformFeeBalance()":"e3c98ba0","proxiableUUID()":"52d1902d","registry()":"7b103999","renounceOwnership()":"715018a6","request(bytes32,bytes,bytes,(uint8,uint40,uint40))":"e76aec11","requests(uint256)":"81d12c58","respond(uint256,uint256,bytes,bytes)":"b584e617","responses(uint256,uint256)":"0057efc2","setFees(uint256,uint256,uint256)":"cec10c11","setGenerationDeviationFactor(uint64)":"e9ca8b46","setParameters((uint8,uint40,uint40),(uint8,uint40,uint40))":"b84b8ac7","transferOwnership(address)":"f2fde38b","upgradeToAndCall(address,bytes)":"4f1ef286","validate(uint256,uint256,uint256[],bytes)":"6b4d5bfc","validationFee()":"f8bbf27e","validations(uint256,uint256)":"4b5a82d1","withdrawPlatformFees()":"d0b7830b"},"storageLayout":{"storage":[{"astId":52154,"contract":"src/LLMOracleCoordinator.sol:LLMOracleCoordinator","label":"platformFee","offset":0,"slot":"0","type":"t_uint256"},{"astId":52157,"contract":"src/LLMOracleCoordinator.sol:LLMOracleCoordinator","label":"generationFee","offset":0,"slot":"1","type":"t_uint256"},{"astId":52160,"contract":"src/LLMOracleCoordinator.sol:LLMOracleCoordinator","label":"validationFee","offset":0,"slot":"2","type":"t_uint256"},{"astId":52163,"contract":"src/LLMOracleCoordinator.sol:LLMOracleCoordinator","label":"generationDeviationFactor","offset":0,"slot":"3","type":"t_uint64"},{"astId":52167,"contract":"src/LLMOracleCoordinator.sol:LLMOracleCoordinator","label":"minimumParameters","offset":0,"slot":"4","type":"t_struct(LLMOracleTaskParameters)52834_storage"},{"astId":52171,"contract":"src/LLMOracleCoordinator.sol:LLMOracleCoordinator","label":"maximumParameters","offset":0,"slot":"5","type":"t_struct(LLMOracleTaskParameters)52834_storage"},{"astId":52174,"contract":"src/LLMOracleCoordinator.sol:LLMOracleCoordinator","label":"minScore","offset":0,"slot":"6","type":"t_uint256"},{"astId":52177,"contract":"src/LLMOracleCoordinator.sol:LLMOracleCoordinator","label":"maxScore","offset":0,"slot":"7","type":"t_uint256"},{"astId":50990,"contract":"src/LLMOracleCoordinator.sol:LLMOracleCoordinator","label":"registry","offset":0,"slot":"8","type":"t_contract(LLMOracleRegistry)52821"},{"astId":50994,"contract":"src/LLMOracleCoordinator.sol:LLMOracleCoordinator","label":"feeToken","offset":0,"slot":"9","type":"t_contract(ERC20)38696"},{"astId":50997,"contract":"src/LLMOracleCoordinator.sol:LLMOracleCoordinator","label":"nextTaskId","offset":0,"slot":"10","type":"t_uint256"},{"astId":51003,"contract":"src/LLMOracleCoordinator.sol:LLMOracleCoordinator","label":"requests","offset":0,"slot":"11","type":"t_mapping(t_uint256,t_struct(TaskRequest)52872_storage)"},{"astId":51010,"contract":"src/LLMOracleCoordinator.sol:LLMOracleCoordinator","label":"responses","offset":0,"slot":"12","type":"t_mapping(t_uint256,t_array(t_struct(TaskResponse)52889_storage)dyn_storage)"},{"astId":51017,"contract":"src/LLMOracleCoordinator.sol:LLMOracleCoordinator","label":"validations","offset":0,"slot":"13","type":"t_mapping(t_uint256,t_array(t_struct(TaskValidation)52904_storage)dyn_storage)"},{"astId":51020,"contract":"src/LLMOracleCoordinator.sol:LLMOracleCoordinator","label":"platformFeeBalance","offset":0,"slot":"14","type":"t_uint256"}],"types":{"t_address":{"encoding":"inplace","label":"address","numberOfBytes":"20"},"t_array(t_struct(TaskResponse)52889_storage)dyn_storage":{"encoding":"dynamic_array","label":"struct LLMOracleTask.TaskResponse[]","numberOfBytes":"32","base":"t_struct(TaskResponse)52889_storage"},"t_array(t_struct(TaskValidation)52904_storage)dyn_storage":{"encoding":"dynamic_array","label":"struct LLMOracleTask.TaskValidation[]","numberOfBytes":"32","base":"t_struct(TaskValidation)52904_storage"},"t_array(t_uint256)dyn_storage":{"encoding":"dynamic_array","label":"uint256[]","numberOfBytes":"32","base":"t_uint256"},"t_bytes32":{"encoding":"inplace","label":"bytes32","numberOfBytes":"32"},"t_bytes_storage":{"encoding":"bytes","label":"bytes","numberOfBytes":"32"},"t_contract(ERC20)38696":{"encoding":"inplace","label":"contract ERC20","numberOfBytes":"20"},"t_contract(LLMOracleRegistry)52821":{"encoding":"inplace","label":"contract LLMOracleRegistry","numberOfBytes":"20"},"t_enum(TaskStatus)52841":{"encoding":"inplace","label":"enum LLMOracleTask.TaskStatus","numberOfBytes":"1"},"t_mapping(t_uint256,t_array(t_struct(TaskResponse)52889_storage)dyn_storage)":{"encoding":"mapping","key":"t_uint256","label":"mapping(uint256 => struct LLMOracleTask.TaskResponse[])","numberOfBytes":"32","value":"t_array(t_struct(TaskResponse)52889_storage)dyn_storage"},"t_mapping(t_uint256,t_array(t_struct(TaskValidation)52904_storage)dyn_storage)":{"encoding":"mapping","key":"t_uint256","label":"mapping(uint256 => struct LLMOracleTask.TaskValidation[])","numberOfBytes":"32","value":"t_array(t_struct(TaskValidation)52904_storage)dyn_storage"},"t_mapping(t_uint256,t_struct(TaskRequest)52872_storage)":{"encoding":"mapping","key":"t_uint256","label":"mapping(uint256 => struct LLMOracleTask.TaskRequest)","numberOfBytes":"32","value":"t_struct(TaskRequest)52872_storage"},"t_struct(LLMOracleTaskParameters)52834_storage":{"encoding":"inplace","label":"struct LLMOracleTaskParameters","numberOfBytes":"32","members":[{"astId":52827,"contract":"src/LLMOracleCoordinator.sol:LLMOracleCoordinator","label":"difficulty","offset":0,"slot":"0","type":"t_uint8"},{"astId":52830,"contract":"src/LLMOracleCoordinator.sol:LLMOracleCoordinator","label":"numGenerations","offset":1,"slot":"0","type":"t_uint40"},{"astId":52833,"contract":"src/LLMOracleCoordinator.sol:LLMOracleCoordinator","label":"numValidations","offset":6,"slot":"0","type":"t_uint40"}]},"t_struct(TaskRequest)52872_storage":{"encoding":"inplace","label":"struct LLMOracleTask.TaskRequest","numberOfBytes":"288","members":[{"astId":52845,"contract":"src/LLMOracleCoordinator.sol:LLMOracleCoordinator","label":"requester","offset":0,"slot":"0","type":"t_address"},{"astId":52848,"contract":"src/LLMOracleCoordinator.sol:LLMOracleCoordinator","label":"protocol","offset":0,"slot":"1","type":"t_bytes32"},{"astId":52852,"contract":"src/LLMOracleCoordinator.sol:LLMOracleCoordinator","label":"parameters","offset":0,"slot":"2","type":"t_struct(LLMOracleTaskParameters)52834_storage"},{"astId":52856,"contract":"src/LLMOracleCoordinator.sol:LLMOracleCoordinator","label":"status","offset":0,"slot":"3","type":"t_enum(TaskStatus)52841"},{"astId":52859,"contract":"src/LLMOracleCoordinator.sol:LLMOracleCoordinator","label":"generatorFee","offset":0,"slot":"4","type":"t_uint256"},{"astId":52862,"contract":"src/LLMOracleCoordinator.sol:LLMOracleCoordinator","label":"validatorFee","offset":0,"slot":"5","type":"t_uint256"},{"astId":52865,"contract":"src/LLMOracleCoordinator.sol:LLMOracleCoordinator","label":"platformFee","offset":0,"slot":"6","type":"t_uint256"},{"astId":52868,"contract":"src/LLMOracleCoordinator.sol:LLMOracleCoordinator","label":"input","offset":0,"slot":"7","type":"t_bytes_storage"},{"astId":52871,"contract":"src/LLMOracleCoordinator.sol:LLMOracleCoordinator","label":"models","offset":0,"slot":"8","type":"t_bytes_storage"}]},"t_struct(TaskResponse)52889_storage":{"encoding":"inplace","label":"struct LLMOracleTask.TaskResponse","numberOfBytes":"160","members":[{"astId":52876,"contract":"src/LLMOracleCoordinator.sol:LLMOracleCoordinator","label":"responder","offset":0,"slot":"0","type":"t_address"},{"astId":52879,"contract":"src/LLMOracleCoordinator.sol:LLMOracleCoordinator","label":"nonce","offset":0,"slot":"1","type":"t_uint256"},{"astId":52882,"contract":"src/LLMOracleCoordinator.sol:LLMOracleCoordinator","label":"score","offset":0,"slot":"2","type":"t_uint256"},{"astId":52885,"contract":"src/LLMOracleCoordinator.sol:LLMOracleCoordinator","label":"output","offset":0,"slot":"3","type":"t_bytes_storage"},{"astId":52888,"contract":"src/LLMOracleCoordinator.sol:LLMOracleCoordinator","label":"metadata","offset":0,"slot":"4","type":"t_bytes_storage"}]},"t_struct(TaskValidation)52904_storage":{"encoding":"inplace","label":"struct LLMOracleTask.TaskValidation","numberOfBytes":"128","members":[{"astId":52893,"contract":"src/LLMOracleCoordinator.sol:LLMOracleCoordinator","label":"validator","offset":0,"slot":"0","type":"t_address"},{"astId":52896,"contract":"src/LLMOracleCoordinator.sol:LLMOracleCoordinator","label":"nonce","offset":0,"slot":"1","type":"t_uint256"},{"astId":52900,"contract":"src/LLMOracleCoordinator.sol:LLMOracleCoordinator","label":"scores","offset":0,"slot":"2","type":"t_array(t_uint256)dyn_storage"},{"astId":52903,"contract":"src/LLMOracleCoordinator.sol:LLMOracleCoordinator","label":"metadata","offset":0,"slot":"3","type":"t_bytes_storage"}]},"t_uint256":{"encoding":"inplace","label":"uint256","numberOfBytes":"32"},"t_uint40":{"encoding":"inplace","label":"uint40","numberOfBytes":"5"},"t_uint64":{"encoding":"inplace","label":"uint64","numberOfBytes":"8"},"t_uint8":{"encoding":"inplace","label":"uint8","numberOfBytes":"1"}}},"id":60}