{"abi":[{"type":"constructor","inputs":[],"stateMutability":"nonpayable"},{"type":"function","name":"UPGRADE_INTERFACE_VERSION","inputs":[],"outputs":[{"name":"","type":"string","internalType":"string"}],"stateMutability":"view"},{"type":"function","name":"addToWhitelist","inputs":[{"name":"accounts","type":"address[]","internalType":"address[]"}],"outputs":[],"stateMutability":"nonpayable"},{"type":"function","name":"generatorStakeAmount","inputs":[],"outputs":[{"name":"","type":"uint256","internalType":"uint256"}],"stateMutability":"view"},{"type":"function","name":"getStakeAmount","inputs":[{"name":"kind","type":"uint8","internalType":"enum LLMOracleKind"}],"outputs":[{"name":"","type":"uint256","internalType":"uint256"}],"stateMutability":"view"},{"type":"function","name":"initialize","inputs":[{"name":"_generatorStakeAmount","type":"uint256","internalType":"uint256"},{"name":"_validatorStakeAmount","type":"uint256","internalType":"uint256"},{"name":"_token","type":"address","internalType":"address"},{"name":"_minRegistrationTime","type":"uint256","internalType":"uint256"}],"outputs":[],"stateMutability":"nonpayable"},{"type":"function","name":"isRegistered","inputs":[{"name":"user","type":"address","internalType":"address"},{"name":"kind","type":"uint8","internalType":"enum LLMOracleKind"}],"outputs":[{"name":"","type":"bool","internalType":"bool"}],"stateMutability":"view"},{"type":"function","name":"isWhitelisted","inputs":[{"name":"","type":"address","internalType":"address"}],"outputs":[{"name":"","type":"bool","internalType":"bool"}],"stateMutability":"view"},{"type":"function","name":"minRegistrationTime","inputs":[],"outputs":[{"name":"","type":"uint256","internalType":"uint256"}],"stateMutability":"view"},{"type":"function","name":"owner","inputs":[],"outputs":[{"name":"","type":"address","internalType":"address"}],"stateMutability":"view"},{"type":"function","name":"proxiableUUID","inputs":[],"outputs":[{"name":"","type":"bytes32","internalType":"bytes32"}],"stateMutability":"view"},{"type":"function","name":"register","inputs":[{"name":"kind","type":"uint8","internalType":"enum LLMOracleKind"}],"outputs":[],"stateMutability":"nonpayable"},{"type":"function","name":"registrationTimes","inputs":[{"name":"oracle","type":"address","internalType":"address"},{"name":"","type":"uint8","internalType":"enum LLMOracleKind"}],"outputs":[{"name":"registeredTime","type":"uint256","internalType":"uint256"}],"stateMutability":"view"},{"type":"function","name":"registrations","inputs":[{"name":"oracle","type":"address","internalType":"address"},{"name":"","type":"uint8","internalType":"enum LLMOracleKind"}],"outputs":[{"name":"amount","type":"uint256","internalType":"uint256"}],"stateMutability":"view"},{"type":"function","name":"removeFromWhitelist","inputs":[{"name":"account","type":"address","internalType":"address"}],"outputs":[],"stateMutability":"nonpayable"},{"type":"function","name":"renounceOwnership","inputs":[],"outputs":[],"stateMutability":"nonpayable"},{"type":"function","name":"setStakeAmounts","inputs":[{"name":"_generatorStakeAmount","type":"uint256","internalType":"uint256"},{"name":"_validatorStakeAmount","type":"uint256","internalType":"uint256"}],"outputs":[],"stateMutability":"nonpayable"},{"type":"function","name":"token","inputs":[],"outputs":[{"name":"","type":"address","internalType":"contract ERC20"}],"stateMutability":"view"},{"type":"function","name":"transferOwnership","inputs":[{"name":"newOwner","type":"address","internalType":"address"}],"outputs":[],"stateMutability":"nonpayable"},{"type":"function","name":"unregister","inputs":[{"name":"kind","type":"uint8","internalType":"enum LLMOracleKind"}],"outputs":[{"name":"amount","type":"uint256","internalType":"uint256"}],"stateMutability":"nonpayable"},{"type":"function","name":"upgradeToAndCall","inputs":[{"name":"newImplementation","type":"address","internalType":"address"},{"name":"data","type":"bytes","internalType":"bytes"}],"outputs":[],"stateMutability":"payable"},{"type":"function","name":"validatorStakeAmount","inputs":[],"outputs":[{"name":"","type":"uint256","internalType":"uint256"}],"stateMutability":"view"},{"type":"event","name":"AddedToWhitelist","inputs":[{"name":"account","type":"address","indexed":true,"internalType":"address"}],"anonymous":false},{"type":"event","name":"Initialized","inputs":[{"name":"version","type":"uint64","indexed":false,"internalType":"uint64"}],"anonymous":false},{"type":"event","name":"OwnershipTransferred","inputs":[{"name":"previousOwner","type":"address","indexed":true,"internalType":"address"},{"name":"newOwner","type":"address","indexed":true,"internalType":"address"}],"anonymous":false},{"type":"event","name":"Registered","inputs":[{"name":"","type":"address","indexed":true,"internalType":"address"},{"name":"kind","type":"uint8","indexed":false,"internalType":"enum LLMOracleKind"}],"anonymous":false},{"type":"event","name":"RemovedFromWhitelist","inputs":[{"name":"account","type":"address","indexed":true,"internalType":"address"}],"anonymous":false},{"type":"event","name":"Unregistered","inputs":[{"name":"","type":"address","indexed":true,"internalType":"address"},{"name":"kind","type":"uint8","indexed":false,"internalType":"enum LLMOracleKind"}],"anonymous":false},{"type":"event","name":"Upgraded","inputs":[{"name":"implementation","type":"address","indexed":true,"internalType":"address"}],"anonymous":false},{"type":"error","name":"AddressEmptyCode","inputs":[{"name":"target","type":"address","internalType":"address"}]},{"type":"error","name":"AlreadyRegistered","inputs":[{"name":"","type":"address","internalType":"address"}]},{"type":"error","name":"ERC1967InvalidImplementation","inputs":[{"name":"implementation","type":"address","internalType":"address"}]},{"type":"error","name":"ERC1967NonPayable","inputs":[]},{"type":"error","name":"FailedCall","inputs":[]},{"type":"error","name":"InsufficientFunds","inputs":[]},{"type":"error","name":"InvalidInitialization","inputs":[]},{"type":"error","name":"NotInitializing","inputs":[]},{"type":"error","name":"NotRegistered","inputs":[{"name":"","type":"address","internalType":"address"}]},{"type":"error","name":"NotWhitelisted","inputs":[{"name":"validator","type":"address","internalType":"address"}]},{"type":"error","name":"OwnableInvalidOwner","inputs":[{"name":"owner","type":"address","internalType":"address"}]},{"type":"error","name":"OwnableUnauthorizedAccount","inputs":[{"name":"account","type":"address","internalType":"address"}]},{"type":"error","name":"TooEarlyToUnregister","inputs":[{"name":"minTimeToWait","type":"uint256","internalType":"uint256"}]},{"type":"error","name":"UUPSUnauthorizedCallContext","inputs":[]},{"type":"error","name":"UUPSUnsupportedProxiableUUID","inputs":[{"name":"slot","type":"bytes32","internalType":"bytes32"}]}],"bytecode":{"object":"0x60a060405230608052348015610013575f80fd5b5061001c610021565b6100d3565b7ff0c57e16840df040f15088dc2f81fe391c3923bec73e23a9662efc9c229c6a00805468010000000000000000900460ff16156100715760405163f92ee8a960e01b815260040160405180910390fd5b80546001600160401b03908116146100d05780546001600160401b0319166001600160401b0390811782556040519081527fc7f505b2f371ae2175ee4913f4499e1f2633a7b5936321eed1cdaeb6115181d29060200160405180910390a15b50565b6080516116086100f95f395f8181610d8101528181610daa0152610eee01526116085ff3fe608060405260043610610126575f3560e01c80637f649783116100a8578063cf9640b41161006d578063cf9640b414610380578063ee12a7a01461039f578063eea5353d146103b4578063f149444b146103c9578063f2fde38b146103e8578063fc0c546a14610407575f80fd5b80637f6497831461027f57806381e1c6ca1461029e5780638ab1d681146102d45780638da5cb5b146102f3578063ad3cb1cc14610343575f80fd5b806352d1902d116100ee57806352d1902d146101fa5780635f5b248b1461020e57806361d689fa1461022d578063715018a61461024c578063771007a914610260575f80fd5b80631a00d4ea1461012a57806323d2f5f6146101525780632d118d5c146101715780633af32abf146101a75780634f1ef286146101e5575b5f80fd5b348015610135575f80fd5b5061013f60035481565b6040519081526020015b60405180910390f35b34801561015d575f80fd5b5061013f61016c36600461123d565b610426565b34801561017c575f80fd5b5061013f61018b36600461126c565b600560209081525f928352604080842090915290825290205481565b3480156101b2575f80fd5b506101d56101c136600461129d565b5f6020819052908152604090205460ff1681565b6040519015158152602001610149565b6101f86101f33660046112fb565b610755565b005b348015610205575f80fd5b5061013f610774565b348015610219575f80fd5b506101d561022836600461126c565b61078f565b348015610238575f80fd5b506101f861024736600461123d565b6107ed565b348015610257575f80fd5b506101f8610a45565b34801561026b575f80fd5b5061013f61027a36600461123d565b610a58565b34801561028a575f80fd5b506101f86102993660046113a0565b610a81565b3480156102a9575f80fd5b5061013f6102b836600461126c565b600460209081525f928352604080842090915290825290205481565b3480156102df575f80fd5b506101f86102ee36600461129d565b610b7d565b3480156102fe575f80fd5b507f9016d09d72d40fdae2fd8ceac6b6234c7706214fd39c1cd1e609a0528c199300546001600160a01b03165b6040516001600160a01b039091168152602001610149565b34801561034e575f80fd5b50610373604051806040016040528060058152602001640352e302e360dc1b81525081565b604051610149919061144f565b34801561038b575f80fd5b506101f861039a366004611484565b610bee565b3480156103aa575f80fd5b5061013f60015481565b3480156103bf575f80fd5b5061013f60025481565b3480156103d4575f80fd5b506101f86103e33660046114be565b610d29565b3480156103f3575f80fd5b506101f861040236600461129d565b610d3c565b348015610412575f80fd5b5060065461032b906001600160a01b031681565b335f90815260046020526040812081836001811115610447576104476114de565b6001811115610458576104586114de565b81526020019081526020015f20549050805f0361048f5760405163bfc6c33760e01b81523360048201526024015b60405180910390fd5b60018260018111156104a3576104a36114de565b1480156104be5750335f9081526020819052604090205460ff165b156104da57335f908152602081905260409020805460ff191690555b600354335f908152600560205260408120908460018111156104fe576104fe6114de565b600181111561050f5761050f6114de565b81526020019081526020015f2054426105289190611506565b101561059557335f9081526005602052604081209083600181111561054f5761054f6114de565b6001811115610560576105606114de565b81526020019081526020015f2054426105799190611506565b60405163fbedc41360e01b815260040161048691815260200190565b335f908152600460205260408120908360018111156105b6576105b66114de565b60018111156105c7576105c76114de565b815260208082019290925260409081015f90812081905533815260059092528120908360018111156105fb576105fb6114de565b600181111561060c5761060c6114de565b81526020019081526020015f205f9055336001600160a01b03167feebfdaadda46c435881bbe8bac1fc3974f3323b1c809c7aabd37ae7b83ca4442836040516106559190611519565b60405180910390a2600654604051636eb1769f60e11b815230600482015233602482018190526001600160a01b039092169163095ea7b3918490849063dd62ed3e90604401602060405180830381865afa1580156106b5573d5f803e3d5ffd5b505050506040513d601f19601f820116820180604052508101906106d9919061153f565b6106e39190611556565b6040516001600160e01b031960e085901b1681526001600160a01b03909216600483015260248201526044016020604051808303815f875af115801561072b573d5f803e3d5ffd5b505050506040513d601f19601f8201168201806040525081019061074f9190611569565b50919050565b61075d610d76565b61076682610e1a565b6107708282610e22565b5050565b5f61077d610ee3565b505f805160206115b383398151915290565b5f61079982610a58565b6001600160a01b0384165f908152600460205260408120908460018111156107c3576107c36114de565b60018111156107d4576107d46114de565b81526020019081526020015f2054101590505b92915050565b6001816001811115610801576108016114de565b0361083757335f9081526020819052604090205460ff1661083757604051636f8bf18b60e11b8152336004820152602401610486565b5f61084182610a58565b905061084d338361078f565b1561086d576040516345ed80e960e01b8152336004820152602401610486565b600654604051636eb1769f60e11b815233600482015230602482015282916001600160a01b03169063dd62ed3e90604401602060405180830381865afa1580156108b9573d5f803e3d5ffd5b505050506040513d601f19601f820116820180604052508101906108dd919061153f565b10156108fc5760405163356680b760e01b815260040160405180910390fd5b6006546040516323b872dd60e01b8152336004820152306024820152604481018390526001600160a01b03909116906323b872dd906064016020604051808303815f875af1158015610950573d5f803e3d5ffd5b505050506040513d601f19601f820116820180604052508101906109749190611569565b50335f9081526004602052604081208291846001811115610997576109976114de565b60018111156109a8576109a86114de565b815260208082019290925260409081015f908120939093553383526005909152812042918460018111156109de576109de6114de565b60018111156109ef576109ef6114de565b81526020019081526020015f2081905550336001600160a01b03167f89b4e995568c900aa52376cbed225dc1a013c9a43cb58186d69676ff593d7c4e83604051610a399190611519565b60405180910390a25050565b610a4d610f2c565b610a565f610f87565b565b5f80826001811115610a6c57610a6c6114de565b14610a79576002546107e7565b505060015490565b610a89610f2c565b5f5b8151811015610770575f80838381518110610aa857610aa8611588565b6020908102919091018101516001600160a01b031682528101919091526040015f205460ff16610b755760015f80848481518110610ae857610ae8611588565b60200260200101516001600160a01b03166001600160a01b031681526020019081526020015f205f6101000a81548160ff021916908315150217905550818181518110610b3757610b37611588565b60200260200101516001600160a01b03167fa850ae9193f515cbae8d35e8925bd2be26627fc91bce650b8652ed254e9cab0360405160405180910390a25b600101610a8b565b610b85610f2c565b6001600160a01b0381165f9081526020819052604090205460ff1615610beb576001600160a01b0381165f81815260208190526040808220805460ff19169055517fcdd2e9b91a56913d370075169cefa1602ba36be5301664f752192bb1709df7579190a25b50565b7ff0c57e16840df040f15088dc2f81fe391c3923bec73e23a9662efc9c229c6a008054600160401b810460ff16159067ffffffffffffffff165f81158015610c335750825b90505f8267ffffffffffffffff166001148015610c4f5750303b155b905081158015610c5d575080155b15610c7b5760405163f92ee8a960e01b815260040160405180910390fd5b845467ffffffffffffffff191660011785558315610ca557845460ff60401b1916600160401b1785555b610cae33610ff7565b600189905560028890556003869055600680546001600160a01b0319166001600160a01b0389161790558315610d1e57845460ff60401b19168555604051600181527fc7f505b2f371ae2175ee4913f4499e1f2633a7b5936321eed1cdaeb6115181d29060200160405180910390a15b505050505050505050565b610d31610f2c565b600191909155600255565b610d44610f2c565b6001600160a01b038116610d6d57604051631e4fbdf760e01b81525f6004820152602401610486565b610beb81610f87565b306001600160a01b037f0000000000000000000000000000000000000000000000000000000000000000161480610dfc57507f00000000000000000000000000000000000000000000000000000000000000006001600160a01b0316610df05f805160206115b3833981519152546001600160a01b031690565b6001600160a01b031614155b15610a565760405163703e46dd60e11b815260040160405180910390fd5b610beb610f2c565b816001600160a01b03166352d1902d6040518163ffffffff1660e01b8152600401602060405180830381865afa925050508015610e7c575060408051601f3d908101601f19168201909252610e799181019061153f565b60015b610ea457604051634c9c8ce360e01b81526001600160a01b0383166004820152602401610486565b5f805160206115b38339815191528114610ed457604051632a87526960e21b815260048101829052602401610486565b610ede8383611008565b505050565b306001600160a01b037f00000000000000000000000000000000000000000000000000000000000000001614610a565760405163703e46dd60e11b815260040160405180910390fd5b33610f5e7f9016d09d72d40fdae2fd8ceac6b6234c7706214fd39c1cd1e609a0528c199300546001600160a01b031690565b6001600160a01b031614610a565760405163118cdaa760e01b8152336004820152602401610486565b7f9016d09d72d40fdae2fd8ceac6b6234c7706214fd39c1cd1e609a0528c19930080546001600160a01b031981166001600160a01b03848116918217845560405192169182907f8be0079c531659141344cd1fd0a4f28419497f9722a3daafe3b4186f6b6457e0905f90a3505050565b610fff61105d565b610beb816110a6565b611011826110ae565b6040516001600160a01b038316907fbc7cd75a20ee27fd9adebab32041f755214dbc6bffa90cc0225b39da2e5c2d3b905f90a280511561105557610ede8282611111565b610770611183565b7ff0c57e16840df040f15088dc2f81fe391c3923bec73e23a9662efc9c229c6a0054600160401b900460ff16610a5657604051631afcd79f60e31b815260040160405180910390fd5b610d4461105d565b806001600160a01b03163b5f036110e357604051634c9c8ce360e01b81526001600160a01b0382166004820152602401610486565b5f805160206115b383398151915280546001600160a01b0319166001600160a01b0392909216919091179055565b60605f80846001600160a01b03168460405161112d919061159c565b5f60405180830381855af49150503d805f8114611165576040519150601f19603f3d011682016040523d82523d5f602084013e61116a565b606091505b509150915061117a8583836111a2565b95945050505050565b3415610a565760405163b398979f60e01b815260040160405180910390fd5b6060826111b7576111b282611201565b6111fa565b81511580156111ce57506001600160a01b0384163b155b156111f757604051639996b31560e01b81526001600160a01b0385166004820152602401610486565b50805b9392505050565b8051156112115780518082602001fd5b60405163d6bda27560e01b815260040160405180910390fd5b803560028110611238575f80fd5b919050565b5f6020828403121561124d575f80fd5b6111fa8261122a565b80356001600160a01b0381168114611238575f80fd5b5f806040838503121561127d575f80fd5b61128683611256565b91506112946020840161122a565b90509250929050565b5f602082840312156112ad575f80fd5b6111fa82611256565b634e487b7160e01b5f52604160045260245ffd5b604051601f8201601f1916810167ffffffffffffffff811182821017156112f3576112f36112b6565b604052919050565b5f806040838503121561130c575f80fd5b61131583611256565b9150602083013567ffffffffffffffff811115611330575f80fd5b8301601f81018513611340575f80fd5b803567ffffffffffffffff81111561135a5761135a6112b6565b61136d601f8201601f19166020016112ca565b818152866020838501011115611381575f80fd5b816020840160208301375f602083830101528093505050509250929050565b5f602082840312156113b0575f80fd5b813567ffffffffffffffff8111156113c6575f80fd5b8201601f810184136113d6575f80fd5b803567ffffffffffffffff8111156113f0576113f06112b6565b8060051b611400602082016112ca565b9182526020818401810192908101908784111561141b575f80fd5b6020850194505b838510156114445761143385611256565b825260209485019490910190611422565b979650505050505050565b602081525f82518060208401528060208501604085015e5f604082850101526040601f19601f83011684010191505092915050565b5f805f8060808587031215611497575f80fd5b84359350602085013592506114ae60408601611256565b9396929550929360600135925050565b5f80604083850312156114cf575f80fd5b50508035926020909101359150565b634e487b7160e01b5f52602160045260245ffd5b634e487b7160e01b5f52601160045260245ffd5b818103818111156107e7576107e76114f2565b602081016002831061153957634e487b7160e01b5f52602160045260245ffd5b91905290565b5f6020828403121561154f575f80fd5b5051919050565b808201808211156107e7576107e76114f2565b5f60208284031215611579575f80fd5b815180151581146111fa575f80fd5b634e487b7160e01b5f52603260045260245ffd5b5f82518060208501845e5f92019182525091905056fe360894a13ba1a3210667c828492db98dca3e2076cc3735a920a3ca505d382bbca2646970667358221220a48298e56c99c531cd83e0ebfdb796e8a22fe8b486771f00cc6d4b80071c85a064736f6c634300081a0033","linkReferences":{}},"methodIdentifiers":{"UPGRADE_INTERFACE_VERSION()":"ad3cb1cc","addToWhitelist(address[])":"7f649783","generatorStakeAmount()":"ee12a7a0","getStakeAmount(uint8)":"771007a9","initialize(uint256,uint256,address,uint256)":"cf9640b4","isRegistered(address,uint8)":"5f5b248b","isWhitelisted(address)":"3af32abf","minRegistrationTime()":"1a00d4ea","owner()":"8da5cb5b","proxiableUUID()":"52d1902d","register(uint8)":"61d689fa","registrationTimes(address,uint8)":"2d118d5c","registrations(address,uint8)":"81e1c6ca","removeFromWhitelist(address)":"8ab1d681","renounceOwnership()":"715018a6","setStakeAmounts(uint256,uint256)":"f149444b","token()":"fc0c546a","transferOwnership(address)":"f2fde38b","unregister(uint8)":"23d2f5f6","upgradeToAndCall(address,bytes)":"4f1ef286","validatorStakeAmount()":"eea5353d"},"storageLayout":{"storage":[{"astId":53143,"contract":"src/LLMOracleRegistry.sol:LLMOracleRegistry","label":"isWhitelisted","offset":0,"slot":"0","type":"t_mapping(t_address,t_bool)"},{"astId":52470,"contract":"src/LLMOracleRegistry.sol:LLMOracleRegistry","label":"generatorStakeAmount","offset":0,"slot":"1","type":"t_uint256"},{"astId":52473,"contract":"src/LLMOracleRegistry.sol:LLMOracleRegistry","label":"validatorStakeAmount","offset":0,"slot":"2","type":"t_uint256"},{"astId":52476,"contract":"src/LLMOracleRegistry.sol:LLMOracleRegistry","label":"minRegistrationTime","offset":0,"slot":"3","type":"t_uint256"},{"astId":52484,"contract":"src/LLMOracleRegistry.sol:LLMOracleRegistry","label":"registrations","offset":0,"slot":"4","type":"t_mapping(t_address,t_mapping(t_enum(LLMOracleKind)52428,t_uint256))"},{"astId":52492,"contract":"src/LLMOracleRegistry.sol:LLMOracleRegistry","label":"registrationTimes","offset":0,"slot":"5","type":"t_mapping(t_address,t_mapping(t_enum(LLMOracleKind)52428,t_uint256))"},{"astId":52496,"contract":"src/LLMOracleRegistry.sol:LLMOracleRegistry","label":"token","offset":0,"slot":"6","type":"t_contract(ERC20)38696"}],"types":{"t_address":{"encoding":"inplace","label":"address","numberOfBytes":"20"},"t_bool":{"encoding":"inplace","label":"bool","numberOfBytes":"1"},"t_contract(ERC20)38696":{"encoding":"inplace","label":"contract ERC20","numberOfBytes":"20"},"t_enum(LLMOracleKind)52428":{"encoding":"inplace","label":"enum LLMOracleKind","numberOfBytes":"1"},"t_mapping(t_address,t_bool)":{"encoding":"mapping","key":"t_address","label":"mapping(address => bool)","numberOfBytes":"32","value":"t_bool"},"t_mapping(t_address,t_mapping(t_enum(LLMOracleKind)52428,t_uint256))":{"encoding":"mapping","key":"t_address","label":"mapping(address => mapping(enum LLMOracleKind => uint256))","numberOfBytes":"32","value":"t_mapping(t_enum(LLMOracleKind)52428,t_uint256)"},"t_mapping(t_enum(LLMOracleKind)52428,t_uint256)":{"encoding":"mapping","key":"t_enum(LLMOracleKind)52428","label":"mapping(enum LLMOracleKind => uint256)","numberOfBytes":"32","value":"t_uint256"},"t_uint256":{"encoding":"inplace","label":"uint256","numberOfBytes":"32"}}},"id":62}